{
  "_format": "hh-sol-artifact-1",
  "contractName": "SatellitesSoundsBeyondSightTiangong1",
  "sourceName": "contracts/SatellitesSoundsBeyondSightTiangong1.sol",
  "abi": [
    {
      "inputs": [],
      "stateMutability": "nonpayable",
      "type": "constructor"
    },
    {
      "anonymous": false,
      "inputs": [
        {
          "indexed": true,
          "internalType": "address",
          "name": "owner",
          "type": "address"
        },
        {
          "indexed": true,
          "internalType": "address",
          "name": "approved",
          "type": "address"
        },
        {
          "indexed": true,
          "internalType": "uint256",
          "name": "tokenId",
          "type": "uint256"
        }
      ],
      "name": "Approval",
      "type": "event"
    },
    {
      "anonymous": false,
      "inputs": [
        {
          "indexed": true,
          "internalType": "address",
          "name": "owner",
          "type": "address"
        },
        {
          "indexed": true,
          "internalType": "address",
          "name": "operator",
          "type": "address"
        },
        {
          "indexed": false,
          "internalType": "bool",
          "name": "approved",
          "type": "bool"
        }
      ],
      "name": "ApprovalForAll",
      "type": "event"
    },
    {
      "anonymous": false,
      "inputs": [
        {
          "indexed": true,
          "internalType": "address",
          "name": "previousOwner",
          "type": "address"
        },
        {
          "indexed": true,
          "internalType": "address",
          "name": "newOwner",
          "type": "address"
        }
      ],
      "name": "OwnershipTransferred",
      "type": "event"
    },
    {
      "anonymous": false,
      "inputs": [
        {
          "indexed": false,
          "internalType": "address",
          "name": "account",
          "type": "address"
        }
      ],
      "name": "Paused",
      "type": "event"
    },
    {
      "anonymous": false,
      "inputs": [
        {
          "indexed": true,
          "internalType": "address",
          "name": "from",
          "type": "address"
        },
        {
          "indexed": true,
          "internalType": "address",
          "name": "to",
          "type": "address"
        },
        {
          "indexed": true,
          "internalType": "uint256",
          "name": "tokenId",
          "type": "uint256"
        }
      ],
      "name": "Transfer",
      "type": "event"
    },
    {
      "anonymous": false,
      "inputs": [
        {
          "indexed": false,
          "internalType": "address",
          "name": "account",
          "type": "address"
        }
      ],
      "name": "Unpaused",
      "type": "event"
    },
    {
      "inputs": [
        {
          "internalType": "address",
          "name": "to",
          "type": "address"
        },
        {
          "internalType": "uint256",
          "name": "tokenId",
          "type": "uint256"
        }
      ],
      "name": "approve",
      "outputs": [],
      "stateMutability": "nonpayable",
      "type": "function"
    },
    {
      "inputs": [
        {
          "internalType": "address",
          "name": "owner",
          "type": "address"
        }
      ],
      "name": "balanceOf",
      "outputs": [
        {
          "internalType": "uint256",
          "name": "",
          "type": "uint256"
        }
      ],
      "stateMutability": "view",
      "type": "function"
    },
    {
      "inputs": [
        {
          "internalType": "uint256",
          "name": "tokenId",
          "type": "uint256"
        }
      ],
      "name": "burn",
      "outputs": [],
      "stateMutability": "nonpayable",
      "type": "function"
    },
    {
      "inputs": [
        {
          "internalType": "uint256",
          "name": "tokenId",
          "type": "uint256"
        }
      ],
      "name": "getApproved",
      "outputs": [
        {
          "internalType": "address",
          "name": "",
          "type": "address"
        }
      ],
      "stateMutability": "view",
      "type": "function"
    },
    {
      "inputs": [
        {
          "internalType": "address",
          "name": "owner",
          "type": "address"
        },
        {
          "internalType": "address",
          "name": "operator",
          "type": "address"
        }
      ],
      "name": "isApprovedForAll",
      "outputs": [
        {
          "internalType": "bool",
          "name": "",
          "type": "bool"
        }
      ],
      "stateMutability": "view",
      "type": "function"
    },
    {
      "inputs": [],
      "name": "name",
      "outputs": [
        {
          "internalType": "string",
          "name": "",
          "type": "string"
        }
      ],
      "stateMutability": "view",
      "type": "function"
    },
    {
      "inputs": [],
      "name": "owner",
      "outputs": [
        {
          "internalType": "address",
          "name": "",
          "type": "address"
        }
      ],
      "stateMutability": "view",
      "type": "function"
    },
    {
      "inputs": [
        {
          "internalType": "uint256",
          "name": "tokenId",
          "type": "uint256"
        }
      ],
      "name": "ownerOf",
      "outputs": [
        {
          "internalType": "address",
          "name": "",
          "type": "address"
        }
      ],
      "stateMutability": "view",
      "type": "function"
    },
    {
      "inputs": [],
      "name": "pause",
      "outputs": [],
      "stateMutability": "nonpayable",
      "type": "function"
    },
    {
      "inputs": [],
      "name": "paused",
      "outputs": [
        {
          "internalType": "bool",
          "name": "",
          "type": "bool"
        }
      ],
      "stateMutability": "view",
      "type": "function"
    },
    {
      "inputs": [],
      "name": "renounceOwnership",
      "outputs": [],
      "stateMutability": "nonpayable",
      "type": "function"
    },
    {
      "inputs": [
        {
          "internalType": "address",
          "name": "to",
          "type": "address"
        },
        {
          "internalType": "uint256",
          "name": "tokenId",
          "type": "uint256"
        },
        {
          "internalType": "string",
          "name": "metadataURI",
          "type": "string"
        }
      ],
      "name": "safeMint",
      "outputs": [],
      "stateMutability": "nonpayable",
      "type": "function"
    },
    {
      "inputs": [
        {
          "internalType": "address",
          "name": "from",
          "type": "address"
        },
        {
          "internalType": "address",
          "name": "to",
          "type": "address"
        },
        {
          "internalType": "uint256",
          "name": "tokenId",
          "type": "uint256"
        }
      ],
      "name": "safeTransferFrom",
      "outputs": [],
      "stateMutability": "nonpayable",
      "type": "function"
    },
    {
      "inputs": [
        {
          "internalType": "address",
          "name": "from",
          "type": "address"
        },
        {
          "internalType": "address",
          "name": "to",
          "type": "address"
        },
        {
          "internalType": "uint256",
          "name": "tokenId",
          "type": "uint256"
        },
        {
          "internalType": "bytes",
          "name": "_data",
          "type": "bytes"
        }
      ],
      "name": "safeTransferFrom",
      "outputs": [],
      "stateMutability": "nonpayable",
      "type": "function"
    },
    {
      "inputs": [
        {
          "internalType": "address",
          "name": "operator",
          "type": "address"
        },
        {
          "internalType": "bool",
          "name": "approved",
          "type": "bool"
        }
      ],
      "name": "setApprovalForAll",
      "outputs": [],
      "stateMutability": "nonpayable",
      "type": "function"
    },
    {
      "inputs": [
        {
          "internalType": "bytes4",
          "name": "interfaceId",
          "type": "bytes4"
        }
      ],
      "name": "supportsInterface",
      "outputs": [
        {
          "internalType": "bool",
          "name": "",
          "type": "bool"
        }
      ],
      "stateMutability": "view",
      "type": "function"
    },
    {
      "inputs": [],
      "name": "symbol",
      "outputs": [
        {
          "internalType": "string",
          "name": "",
          "type": "string"
        }
      ],
      "stateMutability": "view",
      "type": "function"
    },
    {
      "inputs": [
        {
          "internalType": "uint256",
          "name": "tokenId",
          "type": "uint256"
        }
      ],
      "name": "tokenURI",
      "outputs": [
        {
          "internalType": "string",
          "name": "",
          "type": "string"
        }
      ],
      "stateMutability": "view",
      "type": "function"
    },
    {
      "inputs": [],
      "name": "totalSupply",
      "outputs": [
        {
          "internalType": "uint256",
          "name": "",
          "type": "uint256"
        }
      ],
      "stateMutability": "view",
      "type": "function"
    },
    {
      "inputs": [
        {
          "internalType": "address",
          "name": "from",
          "type": "address"
        },
        {
          "internalType": "address",
          "name": "to",
          "type": "address"
        },
        {
          "internalType": "uint256",
          "name": "tokenId",
          "type": "uint256"
        }
      ],
      "name": "transferFrom",
      "outputs": [],
      "stateMutability": "nonpayable",
      "type": "function"
    },
    {
      "inputs": [
        {
          "internalType": "address",
          "name": "newOwner",
          "type": "address"
        }
      ],
      "name": "transferOwnership",
      "outputs": [],
      "stateMutability": "nonpayable",
      "type": "function"
    },
    {
      "inputs": [],
      "name": "unpause",
      "outputs": [],
      "stateMutability": "nonpayable",
      "type": "function"
    }
  ],
  "bytecode": "0x6080604052600060085560016009553480156200001b57600080fd5b506040518060600160405280602c8152602001620038b9602c91396040518060400160405280600481526020017f544e473100000000000000000000000000000000000000000000000000000000815250816000908051906020019062000084929190620001af565b5080600190805190602001906200009d929190620001af565b5050506000600760006101000a81548160ff021916908315150217905550620000db620000cf620000e160201b60201c565b620000e960201b60201c565b620002c4565b600033905090565b6000600760019054906101000a900473ffffffffffffffffffffffffffffffffffffffff16905081600760016101000a81548173ffffffffffffffffffffffffffffffffffffffff021916908373ffffffffffffffffffffffffffffffffffffffff1602179055508173ffffffffffffffffffffffffffffffffffffffff168173ffffffffffffffffffffffffffffffffffffffff167f8be0079c531659141344cd1fd0a4f28419497f9722a3daafe3b4186f6b6457e060405160405180910390a35050565b828054620001bd906200025f565b90600052602060002090601f016020900481019282620001e157600085556200022d565b82601f10620001fc57805160ff19168380011785556200022d565b828001600101855582156200022d579182015b828111156200022c5782518255916020019190600101906200020f565b5b5090506200023c919062000240565b5090565b5b808211156200025b57600081600090555060010162000241565b5090565b600060028204905060018216806200027857607f821691505b602082108114156200028f576200028e62000295565b5b50919050565b7f4e487b7100000000000000000000000000000000000000000000000000000000600052602260045260246000fd5b6135e580620002d46000396000f3fe608060405234801561001057600080fd5b50600436106101425760003560e01c806370a08231116100b8578063a22cb4651161007c578063a22cb4651461032b578063b88d4fde14610347578063c87b56dd14610363578063cd279c7c14610393578063e985e9c5146103af578063f2fde38b146103df57610142565b806370a08231146102ab578063715018a6146102db5780638456cb59146102e55780638da5cb5b146102ef57806395d89b411461030d57610142565b806323b872dd1161010a57806323b872dd146101ff5780633f4ba83a1461021b57806342842e0e1461022557806342966c68146102415780635c975abb1461025d5780636352211e1461027b57610142565b806301ffc9a71461014757806306fdde0314610177578063081812fc14610195578063095ea7b3146101c557806318160ddd146101e1575b600080fd5b610161600480360381019061015c919061254d565b6103fb565b60405161016e9190612e9d565b60405180910390f35b61017f6104dd565b60405161018c9190612eb8565b60405180910390f35b6101af60048036038101906101aa919061259f565b61056f565b6040516101bc9190612e36565b60405180910390f35b6101df60048036038101906101da91906124aa565b6105f4565b005b6101e961070c565b6040516101f6919061317a565b60405180910390f35b610219600480360381019061021491906123a4565b610716565b005b610223610776565b005b61023f600480360381019061023a91906123a4565b6107fc565b005b61025b6004803603810190610256919061259f565b61081c565b005b610265610892565b6040516102729190612e9d565b60405180910390f35b6102956004803603810190610290919061259f565b6108a9565b6040516102a29190612e36565b60405180910390f35b6102c560048036038101906102c0919061233f565b61095b565b6040516102d2919061317a565b60405180910390f35b6102e3610a13565b005b6102ed610a9b565b005b6102f7610b21565b6040516103049190612e36565b60405180910390f35b610315610b4b565b6040516103229190612eb8565b60405180910390f35b6103456004803603810190610340919061246e565b610bdd565b005b610361600480360381019061035c91906123f3565b610d5e565b005b61037d6004803603810190610378919061259f565b610dc0565b60405161038a9190612eb8565b60405180910390f35b6103ad60048036038101906103a891906124e6565b610f12565b005b6103c960048036038101906103c49190612368565b610fce565b6040516103d69190612e9d565b60405180910390f35b6103f960048036038101906103f4919061233f565b611062565b005b60007f80ac58cd000000000000000000000000000000000000000000000000000000007bffffffffffffffffffffffffffffffffffffffffffffffffffffffff1916827bffffffffffffffffffffffffffffffffffffffffffffffffffffffff191614806104c657507f5b5e139f000000000000000000000000000000000000000000000000000000007bffffffffffffffffffffffffffffffffffffffffffffffffffffffff1916827bffffffffffffffffffffffffffffffffffffffffffffffffffffffff1916145b806104d657506104d58261115a565b5b9050919050565b6060600080546104ec906133da565b80601f0160208091040260200160405190810160405280929190818152602001828054610518906133da565b80156105655780601f1061053a57610100808354040283529160200191610565565b820191906000526020600020905b81548152906001019060200180831161054857829003601f168201915b5050505050905090565b600061057a826111c4565b6105b9576040517f08c379a00000000000000000000000000000000000000000000000000000000081526004016105b09061309a565b60405180910390fd5b6004600083815260200190815260200160002060009054906101000a900473ffffffffffffffffffffffffffffffffffffffff169050919050565b60006105ff826108a9565b90508073ffffffffffffffffffffffffffffffffffffffff168373ffffffffffffffffffffffffffffffffffffffff161415610670576040517f08c379a00000000000000000000000000000000000000000000000000000000081526004016106679061311a565b60405180910390fd5b8073ffffffffffffffffffffffffffffffffffffffff1661068f611230565b73ffffffffffffffffffffffffffffffffffffffff1614806106be57506106bd816106b8611230565b610fce565b5b6106fd576040517f08c379a00000000000000000000000000000000000000000000000000000000081526004016106f490612fda565b60405180910390fd5b6107078383611238565b505050565b6000600954905090565b610727610721611230565b826112f1565b610766576040517f08c379a000000000000000000000000000000000000000000000000000000000815260040161075d9061313a565b60405180910390fd5b6107718383836113cf565b505050565b61077e611230565b73ffffffffffffffffffffffffffffffffffffffff1661079c610b21565b73ffffffffffffffffffffffffffffffffffffffff16146107f2576040517f08c379a00000000000000000000000000000000000000000000000000000000081526004016107e9906130ba565b60405180910390fd5b6107fa61162b565b565b61081783838360405180602001604052806000815250610d5e565b505050565b61082d610827611230565b826112f1565b61086c576040517f08c379a00000000000000000000000000000000000000000000000000000000081526004016108639061315a565b60405180910390fd5b610875816116cd565b60016008600082825461088891906132f0565b9250508190555050565b6000600760009054906101000a900460ff16905090565b6000806002600084815260200190815260200160002060009054906101000a900473ffffffffffffffffffffffffffffffffffffffff169050600073ffffffffffffffffffffffffffffffffffffffff168173ffffffffffffffffffffffffffffffffffffffff161415610952576040517f08c379a00000000000000000000000000000000000000000000000000000000081526004016109499061301a565b60405180910390fd5b80915050919050565b60008073ffffffffffffffffffffffffffffffffffffffff168273ffffffffffffffffffffffffffffffffffffffff1614156109cc576040517f08c379a00000000000000000000000000000000000000000000000000000000081526004016109c390612ffa565b60405180910390fd5b600360008373ffffffffffffffffffffffffffffffffffffffff1673ffffffffffffffffffffffffffffffffffffffff168152602001908152602001600020549050919050565b610a1b611230565b73ffffffffffffffffffffffffffffffffffffffff16610a39610b21565b73ffffffffffffffffffffffffffffffffffffffff1614610a8f576040517f08c379a0000000000000000000000000000000000000000000000000000000008152600401610a86906130ba565b60405180910390fd5b610a996000611720565b565b610aa3611230565b73ffffffffffffffffffffffffffffffffffffffff16610ac1610b21565b73ffffffffffffffffffffffffffffffffffffffff1614610b17576040517f08c379a0000000000000000000000000000000000000000000000000000000008152600401610b0e906130ba565b60405180910390fd5b610b1f6117e6565b565b6000600760019054906101000a900473ffffffffffffffffffffffffffffffffffffffff16905090565b606060018054610b5a906133da565b80601f0160208091040260200160405190810160405280929190818152602001828054610b86906133da565b8015610bd35780601f10610ba857610100808354040283529160200191610bd3565b820191906000526020600020905b815481529060010190602001808311610bb657829003601f168201915b5050505050905090565b610be5611230565b73ffffffffffffffffffffffffffffffffffffffff168273ffffffffffffffffffffffffffffffffffffffff161415610c53576040517f08c379a0000000000000000000000000000000000000000000000000000000008152600401610c4a90612f7a565b60405180910390fd5b8060056000610c60611230565b73ffffffffffffffffffffffffffffffffffffffff1673ffffffffffffffffffffffffffffffffffffffff16815260200190815260200160002060008473ffffffffffffffffffffffffffffffffffffffff1673ffffffffffffffffffffffffffffffffffffffff16815260200190815260200160002060006101000a81548160ff0219169083151502179055508173ffffffffffffffffffffffffffffffffffffffff16610d0d611230565b73ffffffffffffffffffffffffffffffffffffffff167f17307eab39ab6107e8899845ad3d59bd9653f200f220920489ca2b5937696c3183604051610d529190612e9d565b60405180910390a35050565b610d6f610d69611230565b836112f1565b610dae576040517f08c379a0000000000000000000000000000000000000000000000000000000008152600401610da59061313a565b60405180910390fd5b610dba84848484611889565b50505050565b6060610dcb826111c4565b610e0a576040517f08c379a0000000000000000000000000000000000000000000000000000000008152600401610e019061307a565b60405180910390fd5b6000600660008481526020019081526020016000208054610e2a906133da565b80601f0160208091040260200160405190810160405280929190818152602001828054610e56906133da565b8015610ea35780601f10610e7857610100808354040283529160200191610ea3565b820191906000526020600020905b815481529060010190602001808311610e8657829003601f168201915b505050505090506000610eb46118e5565b9050600081511415610eca578192505050610f0d565b600082511115610eff578082604051602001610ee7929190612e12565b60405160208183030381529060405292505050610f0d565b610f08846118fc565b925050505b919050565b610f1a611230565b73ffffffffffffffffffffffffffffffffffffffff16610f38610b21565b73ffffffffffffffffffffffffffffffffffffffff1614610f8e576040517f08c379a0000000000000000000000000000000000000000000000000000000008152600401610f85906130ba565b60405180910390fd5b6009546008541015610fc957610fa483836119a3565b610fae82826119c1565b600160086000828254610fc19190613269565b925050819055505b505050565b6000600560008473ffffffffffffffffffffffffffffffffffffffff1673ffffffffffffffffffffffffffffffffffffffff16815260200190815260200160002060008373ffffffffffffffffffffffffffffffffffffffff1673ffffffffffffffffffffffffffffffffffffffff16815260200190815260200160002060009054906101000a900460ff16905092915050565b61106a611230565b73ffffffffffffffffffffffffffffffffffffffff16611088610b21565b73ffffffffffffffffffffffffffffffffffffffff16146110de576040517f08c379a00000000000000000000000000000000000000000000000000000000081526004016110d5906130ba565b60405180910390fd5b600073ffffffffffffffffffffffffffffffffffffffff168173ffffffffffffffffffffffffffffffffffffffff16141561114e576040517f08c379a000000000000000000000000000000000000000000000000000000000815260040161114590612f1a565b60405180910390fd5b61115781611720565b50565b60007f01ffc9a7000000000000000000000000000000000000000000000000000000007bffffffffffffffffffffffffffffffffffffffffffffffffffffffff1916827bffffffffffffffffffffffffffffffffffffffffffffffffffffffff1916149050919050565b60008073ffffffffffffffffffffffffffffffffffffffff166002600084815260200190815260200160002060009054906101000a900473ffffffffffffffffffffffffffffffffffffffff1673ffffffffffffffffffffffffffffffffffffffff1614159050919050565b600033905090565b816004600083815260200190815260200160002060006101000a81548173ffffffffffffffffffffffffffffffffffffffff021916908373ffffffffffffffffffffffffffffffffffffffff160217905550808273ffffffffffffffffffffffffffffffffffffffff166112ab836108a9565b73ffffffffffffffffffffffffffffffffffffffff167f8c5be1e5ebec7d5bd14f71427d1e84f3dd0314c0f7b2291e5b200ac8c7c3b92560405160405180910390a45050565b60006112fc826111c4565b61133b576040517f08c379a000000000000000000000000000000000000000000000000000000000815260040161133290612f9a565b60405180910390fd5b6000611346836108a9565b90508073ffffffffffffffffffffffffffffffffffffffff168473ffffffffffffffffffffffffffffffffffffffff1614806113b557508373ffffffffffffffffffffffffffffffffffffffff1661139d8461056f565b73ffffffffffffffffffffffffffffffffffffffff16145b806113c657506113c58185610fce565b5b91505092915050565b8273ffffffffffffffffffffffffffffffffffffffff166113ef826108a9565b73ffffffffffffffffffffffffffffffffffffffff1614611445576040517f08c379a000000000000000000000000000000000000000000000000000000000815260040161143c906130da565b60405180910390fd5b600073ffffffffffffffffffffffffffffffffffffffff168273ffffffffffffffffffffffffffffffffffffffff1614156114b5576040517f08c379a00000000000000000000000000000000000000000000000000000000081526004016114ac90612f5a565b60405180910390fd5b6114c0838383611a35565b6114cb600082611238565b6001600360008573ffffffffffffffffffffffffffffffffffffffff1673ffffffffffffffffffffffffffffffffffffffff168152602001908152602001600020600082825461151b91906132f0565b925050819055506001600360008473ffffffffffffffffffffffffffffffffffffffff1673ffffffffffffffffffffffffffffffffffffffff16815260200190815260200160002060008282546115729190613269565b92505081905550816002600083815260200190815260200160002060006101000a81548173ffffffffffffffffffffffffffffffffffffffff021916908373ffffffffffffffffffffffffffffffffffffffff160217905550808273ffffffffffffffffffffffffffffffffffffffff168473ffffffffffffffffffffffffffffffffffffffff167fddf252ad1be2c89b69c2b068fc378daa952ba7f163c4a11628f55a4df523b3ef60405160405180910390a4505050565b611633610892565b611672576040517f08c379a000000000000000000000000000000000000000000000000000000000815260040161166990612eda565b60405180910390fd5b6000600760006101000a81548160ff0219169083151502179055507f5db9ee0a495bf2e6ff9c91a7834c1ba4fdd244a5e8aa4e537bd38aeae4b073aa6116b6611230565b6040516116c39190612e36565b60405180910390a1565b6116d681611a8d565b60006006600083815260200190815260200160002080546116f6906133da565b90501461171d5760066000828152602001908152602001600020600061171c9190612123565b5b50565b6000600760019054906101000a900473ffffffffffffffffffffffffffffffffffffffff16905081600760016101000a81548173ffffffffffffffffffffffffffffffffffffffff021916908373ffffffffffffffffffffffffffffffffffffffff1602179055508173ffffffffffffffffffffffffffffffffffffffff168173ffffffffffffffffffffffffffffffffffffffff167f8be0079c531659141344cd1fd0a4f28419497f9722a3daafe3b4186f6b6457e060405160405180910390a35050565b6117ee610892565b1561182e576040517f08c379a000000000000000000000000000000000000000000000000000000000815260040161182590612fba565b60405180910390fd5b6001600760006101000a81548160ff0219169083151502179055507f62e78cea01bee320cd4e420270b5ea74000d11b0c9f74754ebdbfc544b05a258611872611230565b60405161187f9190612e36565b60405180910390a1565b6118948484846113cf565b6118a084848484611b9e565b6118df576040517f08c379a00000000000000000000000000000000000000000000000000000000081526004016118d690612efa565b60405180910390fd5b50505050565b606060405180602001604052806000815250905090565b6060611907826111c4565b611946576040517f08c379a000000000000000000000000000000000000000000000000000000000815260040161193d906130fa565b60405180910390fd5b60006119506118e5565b90506000815111611970576040518060200160405280600081525061199b565b8061197a84611d35565b60405160200161198b929190612e12565b6040516020818303038152906040525b915050919050565b6119bd828260405180602001604052806000815250611ee2565b5050565b6119ca826111c4565b611a09576040517f08c379a0000000000000000000000000000000000000000000000000000000008152600401611a009061303a565b60405180910390fd5b80600660008481526020019081526020016000209080519060200190611a30929190612163565b505050565b611a3d610892565b15611a7d576040517f08c379a0000000000000000000000000000000000000000000000000000000008152600401611a7490612fba565b60405180910390fd5b611a88838383611f3d565b505050565b6000611a98826108a9565b9050611aa681600084611a35565b611ab1600083611238565b6001600360008373ffffffffffffffffffffffffffffffffffffffff1673ffffffffffffffffffffffffffffffffffffffff1681526020019081526020016000206000828254611b0191906132f0565b925050819055506002600083815260200190815260200160002060006101000a81549073ffffffffffffffffffffffffffffffffffffffff021916905581600073ffffffffffffffffffffffffffffffffffffffff168273ffffffffffffffffffffffffffffffffffffffff167fddf252ad1be2c89b69c2b068fc378daa952ba7f163c4a11628f55a4df523b3ef60405160405180910390a45050565b6000611bbf8473ffffffffffffffffffffffffffffffffffffffff16611f42565b15611d28578373ffffffffffffffffffffffffffffffffffffffff1663150b7a02611be8611230565b8786866040518563ffffffff1660e01b8152600401611c0a9493929190612e51565b602060405180830381600087803b158015611c2457600080fd5b505af1925050508015611c5557506040513d601f19601f82011682018060405250810190611c529190612576565b60015b611cd8573d8060008114611c85576040519150601f19603f3d011682016040523d82523d6000602084013e611c8a565b606091505b50600081511415611cd0576040517f08c379a0000000000000000000000000000000000000000000000000000000008152600401611cc790612efa565b60405180910390fd5b805181602001fd5b63150b7a0260e01b7bffffffffffffffffffffffffffffffffffffffffffffffffffffffff1916817bffffffffffffffffffffffffffffffffffffffffffffffffffffffff191614915050611d2d565b600190505b949350505050565b60606000821415611d7d576040518060400160405280600181526020017f30000000000000000000000000000000000000000000000000000000000000008152509050611edd565b600082905060005b60008214611daf578080611d989061340c565b915050600a82611da891906132bf565b9150611d85565b60008167ffffffffffffffff811115611df1577f4e487b7100000000000000000000000000000000000000000000000000000000600052604160045260246000fd5b6040519080825280601f01601f191660200182016040528015611e235781602001600182028036833780820191505090505b5090505b60008514611ed657600182611e3c91906132f0565b9150600a85611e4b9190613455565b6030611e579190613269565b60f81b818381518110611e93577f4e487b7100000000000000000000000000000000000000000000000000000000600052603260045260246000fd5b60200101907effffffffffffffffffffffffffffffffffffffffffffffffffffffffffffff1916908160001a905350600a85611ecf91906132bf565b9450611e27565b8093505050505b919050565b611eec8383611f55565b611ef96000848484611b9e565b611f38576040517f08c379a0000000000000000000000000000000000000000000000000000000008152600401611f2f90612efa565b60405180910390fd5b505050565b505050565b600080823b905060008111915050919050565b600073ffffffffffffffffffffffffffffffffffffffff168273ffffffffffffffffffffffffffffffffffffffff161415611fc5576040517f08c379a0000000000000000000000000000000000000000000000000000000008152600401611fbc9061305a565b60405180910390fd5b611fce816111c4565b1561200e576040517f08c379a000000000000000000000000000000000000000000000000000000000815260040161200590612f3a565b60405180910390fd5b61201a60008383611a35565b6001600360008473ffffffffffffffffffffffffffffffffffffffff1673ffffffffffffffffffffffffffffffffffffffff168152602001908152602001600020600082825461206a9190613269565b92505081905550816002600083815260200190815260200160002060006101000a81548173ffffffffffffffffffffffffffffffffffffffff021916908373ffffffffffffffffffffffffffffffffffffffff160217905550808273ffffffffffffffffffffffffffffffffffffffff16600073ffffffffffffffffffffffffffffffffffffffff167fddf252ad1be2c89b69c2b068fc378daa952ba7f163c4a11628f55a4df523b3ef60405160405180910390a45050565b50805461212f906133da565b6000825580601f106121415750612160565b601f01602090049060005260206000209081019061215f91906121e9565b5b50565b82805461216f906133da565b90600052602060002090601f01602090048101928261219157600085556121d8565b82601f106121aa57805160ff19168380011785556121d8565b828001600101855582156121d8579182015b828111156121d75782518255916020019190600101906121bc565b5b5090506121e591906121e9565b5090565b5b808211156122025760008160009055506001016121ea565b5090565b6000612219612214846131c6565b613195565b90508281526020810184848401111561223157600080fd5b61223c848285613398565b509392505050565b6000612257612252846131f6565b613195565b90508281526020810184848401111561226f57600080fd5b61227a848285613398565b509392505050565b60008135905061229181613553565b92915050565b6000813590506122a68161356a565b92915050565b6000813590506122bb81613581565b92915050565b6000815190506122d081613581565b92915050565b600082601f8301126122e757600080fd5b81356122f7848260208601612206565b91505092915050565b600082601f83011261231157600080fd5b8135612321848260208601612244565b91505092915050565b60008135905061233981613598565b92915050565b60006020828403121561235157600080fd5b600061235f84828501612282565b91505092915050565b6000806040838503121561237b57600080fd5b600061238985828601612282565b925050602061239a85828601612282565b9150509250929050565b6000806000606084860312156123b957600080fd5b60006123c786828701612282565b93505060206123d886828701612282565b92505060406123e98682870161232a565b9150509250925092565b6000806000806080858703121561240957600080fd5b600061241787828801612282565b945050602061242887828801612282565b93505060406124398782880161232a565b925050606085013567ffffffffffffffff81111561245657600080fd5b612462878288016122d6565b91505092959194509250565b6000806040838503121561248157600080fd5b600061248f85828601612282565b92505060206124a085828601612297565b9150509250929050565b600080604083850312156124bd57600080fd5b60006124cb85828601612282565b92505060206124dc8582860161232a565b9150509250929050565b6000806000606084860312156124fb57600080fd5b600061250986828701612282565b935050602061251a8682870161232a565b925050604084013567ffffffffffffffff81111561253757600080fd5b61254386828701612300565b9150509250925092565b60006020828403121561255f57600080fd5b600061256d848285016122ac565b91505092915050565b60006020828403121561258857600080fd5b6000612596848285016122c1565b91505092915050565b6000602082840312156125b157600080fd5b60006125bf8482850161232a565b91505092915050565b6125d181613324565b82525050565b6125e081613336565b82525050565b60006125f182613226565b6125fb818561323c565b935061260b8185602086016133a7565b61261481613542565b840191505092915050565b600061262a82613231565b612634818561324d565b93506126448185602086016133a7565b61264d81613542565b840191505092915050565b600061266382613231565b61266d818561325e565b935061267d8185602086016133a7565b80840191505092915050565b600061269660148361324d565b91507f5061757361626c653a206e6f74207061757365640000000000000000000000006000830152602082019050919050565b60006126d660328361324d565b91507f4552433732313a207472616e7366657220746f206e6f6e20455243373231526560008301527f63656976657220696d706c656d656e74657200000000000000000000000000006020830152604082019050919050565b600061273c60268361324d565b91507f4f776e61626c653a206e6577206f776e657220697320746865207a65726f206160008301527f64647265737300000000000000000000000000000000000000000000000000006020830152604082019050919050565b60006127a2601c8361324d565b91507f4552433732313a20746f6b656e20616c7265616479206d696e746564000000006000830152602082019050919050565b60006127e260248361324d565b91507f4552433732313a207472616e7366657220746f20746865207a65726f2061646460008301527f72657373000000000000000000000000000000000000000000000000000000006020830152604082019050919050565b600061284860198361324d565b91507f4552433732313a20617070726f766520746f2063616c6c6572000000000000006000830152602082019050919050565b6000612888602c8361324d565b91507f4552433732313a206f70657261746f7220717565727920666f72206e6f6e657860008301527f697374656e7420746f6b656e00000000000000000000000000000000000000006020830152604082019050919050565b60006128ee60108361324d565b91507f5061757361626c653a20706175736564000000000000000000000000000000006000830152602082019050919050565b600061292e60388361324d565b91507f4552433732313a20617070726f76652063616c6c6572206973206e6f74206f7760008301527f6e6572206e6f7220617070726f76656420666f7220616c6c00000000000000006020830152604082019050919050565b6000612994602a8361324d565b91507f4552433732313a2062616c616e636520717565727920666f7220746865207a6560008301527f726f2061646472657373000000000000000000000000000000000000000000006020830152604082019050919050565b60006129fa60298361324d565b91507f4552433732313a206f776e657220717565727920666f72206e6f6e657869737460008301527f656e7420746f6b656e00000000000000000000000000000000000000000000006020830152604082019050919050565b6000612a60602e8361324d565b91507f45524337323155524953746f726167653a2055524920736574206f66206e6f6e60008301527f6578697374656e7420746f6b656e0000000000000000000000000000000000006020830152604082019050919050565b6000612ac660208361324d565b91507f4552433732313a206d696e7420746f20746865207a65726f20616464726573736000830152602082019050919050565b6000612b0660318361324d565b91507f45524337323155524953746f726167653a2055524920717565727920666f722060008301527f6e6f6e6578697374656e7420746f6b656e0000000000000000000000000000006020830152604082019050919050565b6000612b6c602c8361324d565b91507f4552433732313a20617070726f76656420717565727920666f72206e6f6e657860008301527f697374656e7420746f6b656e00000000000000000000000000000000000000006020830152604082019050919050565b6000612bd260208361324d565b91507f4f776e61626c653a2063616c6c6572206973206e6f7420746865206f776e65726000830152602082019050919050565b6000612c1260298361324d565b91507f4552433732313a207472616e73666572206f6620746f6b656e2074686174206960008301527f73206e6f74206f776e00000000000000000000000000000000000000000000006020830152604082019050919050565b6000612c78602f8361324d565b91507f4552433732314d657461646174613a2055524920717565727920666f72206e6f60008301527f6e6578697374656e7420746f6b656e00000000000000000000000000000000006020830152604082019050919050565b6000612cde60218361324d565b91507f4552433732313a20617070726f76616c20746f2063757272656e74206f776e6560008301527f72000000000000000000000000000000000000000000000000000000000000006020830152604082019050919050565b6000612d4460318361324d565b91507f4552433732313a207472616e736665722063616c6c6572206973206e6f74206f60008301527f776e6572206e6f7220617070726f7665640000000000000000000000000000006020830152604082019050919050565b6000612daa60308361324d565b91507f4552433732314275726e61626c653a2063616c6c6572206973206e6f74206f7760008301527f6e6572206e6f7220617070726f766564000000000000000000000000000000006020830152604082019050919050565b612e0c8161338e565b82525050565b6000612e1e8285612658565b9150612e2a8284612658565b91508190509392505050565b6000602082019050612e4b60008301846125c8565b92915050565b6000608082019050612e6660008301876125c8565b612e7360208301866125c8565b612e806040830185612e03565b8181036060830152612e9281846125e6565b905095945050505050565b6000602082019050612eb260008301846125d7565b92915050565b60006020820190508181036000830152612ed2818461261f565b905092915050565b60006020820190508181036000830152612ef381612689565b9050919050565b60006020820190508181036000830152612f13816126c9565b9050919050565b60006020820190508181036000830152612f338161272f565b9050919050565b60006020820190508181036000830152612f5381612795565b9050919050565b60006020820190508181036000830152612f73816127d5565b9050919050565b60006020820190508181036000830152612f938161283b565b9050919050565b60006020820190508181036000830152612fb38161287b565b9050919050565b60006020820190508181036000830152612fd3816128e1565b9050919050565b60006020820190508181036000830152612ff381612921565b9050919050565b6000602082019050818103600083015261301381612987565b9050919050565b60006020820190508181036000830152613033816129ed565b9050919050565b6000602082019050818103600083015261305381612a53565b9050919050565b6000602082019050818103600083015261307381612ab9565b9050919050565b6000602082019050818103600083015261309381612af9565b9050919050565b600060208201905081810360008301526130b381612b5f565b9050919050565b600060208201905081810360008301526130d381612bc5565b9050919050565b600060208201905081810360008301526130f381612c05565b9050919050565b6000602082019050818103600083015261311381612c6b565b9050919050565b6000602082019050818103600083015261313381612cd1565b9050919050565b6000602082019050818103600083015261315381612d37565b9050919050565b6000602082019050818103600083015261317381612d9d565b9050919050565b600060208201905061318f6000830184612e03565b92915050565b6000604051905081810181811067ffffffffffffffff821117156131bc576131bb613513565b5b8060405250919050565b600067ffffffffffffffff8211156131e1576131e0613513565b5b601f19601f8301169050602081019050919050565b600067ffffffffffffffff82111561321157613210613513565b5b601f19601f8301169050602081019050919050565b600081519050919050565b600081519050919050565b600082825260208201905092915050565b600082825260208201905092915050565b600081905092915050565b60006132748261338e565b915061327f8361338e565b9250827fffffffffffffffffffffffffffffffffffffffffffffffffffffffffffffffff038211156132b4576132b3613486565b5b828201905092915050565b60006132ca8261338e565b91506132d58361338e565b9250826132e5576132e46134b5565b5b828204905092915050565b60006132fb8261338e565b91506133068361338e565b92508282101561331957613318613486565b5b828203905092915050565b600061332f8261336e565b9050919050565b60008115159050919050565b60007fffffffff0000000000000000000000000000000000000000000000000000000082169050919050565b600073ffffffffffffffffffffffffffffffffffffffff82169050919050565b6000819050919050565b82818337600083830152505050565b60005b838110156133c55780820151818401526020810190506133aa565b838111156133d4576000848401525b50505050565b600060028204905060018216806133f257607f821691505b60208210811415613406576134056134e4565b5b50919050565b60006134178261338e565b91507fffffffffffffffffffffffffffffffffffffffffffffffffffffffffffffffff82141561344a57613449613486565b5b600182019050919050565b60006134608261338e565b915061346b8361338e565b92508261347b5761347a6134b5565b5b828206905092915050565b7f4e487b7100000000000000000000000000000000000000000000000000000000600052601160045260246000fd5b7f4e487b7100000000000000000000000000000000000000000000000000000000600052601260045260246000fd5b7f4e487b7100000000000000000000000000000000000000000000000000000000600052602260045260246000fd5b7f4e487b7100000000000000000000000000000000000000000000000000000000600052604160045260246000fd5b6000601f19601f8301169050919050565b61355c81613324565b811461356757600080fd5b50565b61357381613336565b811461357e57600080fd5b50565b61358a81613342565b811461359557600080fd5b50565b6135a18161338e565b81146135ac57600080fd5b5056fea26469706673582212200027720a4885af9311536605c8923baeb98752bed511eeee1bf507b7805e1e1864736f6c63430008000033536174656c6c697465733a20536f756e6473204265796f6e64205369676874202d205469616e676f6e672d31",
  "linkReferences": {},
  "deployedLinkReferences": {}
}